:02000000622A72
:10000800FF00030E8301B8000A08B9008A018B1C9F
:1000180010288B100130B40039088A00380E83008C
:06002800FF0E7F0E09002F
:10002E008312031305181E2809191E285B28881031
:10003E0088182328081024280814881588192928B8
:10004E0008112A2808151130B7001430370203188A
:10005E004C28091109193528091036280914891454
:10006E003708203E8400000887000430FB000C3067
:10007E00FC003330FD00FD0B4228FC0B4228FB0B2D
:10008E00422800000000B70A2C2885108518512838
:10009E0005105228051405158910891858280911BC
:1000AE00592809150914A32805196028091860286C
:1000BE00A328881488186528081066280814881143
:1000CE0088196B2808116C2808151130B7001430E8
:1000DE003702031895280511051977280510782879
:1000EE0005148514091109197E2889107F28891491
:1000FE0009143708203E8400000887000430FB00F6
:10010E000C30FC003330FD00FD0B8B28FC0B8B28D4
:10011E00FB0B8B2800000000B70A6E280514851013
:10012E0085189B2805119C28051589108918A1286A
:0A013E000910A22809140915080091
:1001480083120313861CBF2888118819AD2808114B
:10015800AE2808150819B2288810B32888148818FA
:10016800B7280810B82808143408013A031DBE2817
:10017800B4011720A42888158819C4280811C5288F
:1001880008150819C9288810CA2888148818CE287C
:080198000810CF28081408002C
:0E01A0008312031336088A0035088200080017
:1001AE008312031388158819DE280811DF28081515
:1001BE000819E3288810E42888148818E8280810FD
:1001CE00E9280814051C9F29B701143037020318BB
:1001DE001729051405110519F6288510F728851419
:1001EE0089108918FC280910FD28091409153708EB
:1001FE00203E8400000887000430FB000C30FC0019
:10020E003330FD00FD0B0929FC0B0929FB0B0929D5
:10021E0000000000A420051D1529A129B70AEC280D
:10022E001130B70014303702031844290514051194
:10023E00051923298510242985140911091929293D
:10024E0009102A29091489143708203E8400000851
:10025E0087000430FB000C30FC003330FD00FD0B3A
:10026E003629FC0B3629FB0B362900000000A42092
:10027E00051D4229A129B70A19290830B7001430E3
:10028E00370203187129851085184F29051050293A
:10029E0005140515091489108918572909115829AB
:1002AE0009153708203E8400000887000430FB0043
:1002BE000C30FC003330FD00FD0B6329FC0B632971
:1002CE00FB0B632900000000A420051C6F29EB28FE
:1002DE00B70A46291130B7001430370203189E2989
:1002EE00051105197C2905107D290514851409149D
:1002FE008910891884290911852909153708203E86
:10030E008400000887000430FB000C30FC00333002
:10031E00FD00FD0B9029FC0B9029FB0B9029000092
:10032E000000A420051D9C29A129B70A7329EB28DA
:10033E00051D552AB701143037020318CD290515AE
:10034E0005100518AC298510AD298514891089185A
:10035E00B2290911B329091509143708203E840062
:10036E00000887000430FB000C30FC003330FD0029
:10037E00FD0BBF29FC0BBF29FB0BBF2900000000A2
:10038E00A420051CCB29EB28B70AA2291130B700EF
:10039E00143037020318FA29851405110519D929C5
:1003AE000510DA29051409110919DF298910E02928
:1003BE00891409143708203E840000088700043091
:1003CE00FB000C30FC003330FD00FD0BEC29FC0B68
:1003DE00EC29FB0BEC2900000000A420051CF829D9
:1003EE00EB28B70ACF290830B700143037020318AC
:1003FE00272A85108518052A0511062A05150514C4
:10040E000915891089180D2A09100E2A09143708A2
:10041E00203E8400000887000430FB000C30FC00F6
:10042E003330FD00FD0B192AFC0B192AFB0B192A80
:10043E0000000000A420051D252AA129B70AFC29C9
:10044E001130B700143037020318542A051105195C
:10045E00322A8510332A85140514891409100918B7
:10046E003A2A09113B2A09153708203E8400000854
:10047E0087000430FB000C30FC003330FD00FD0B18
:10048E00462AFC0B462AFB0B462A00000000A4203D
:0E049E00091C522AEB28B70A292AA1290800B6
:1004AC00D0208A110A128000840AB50A0319B60AF0
:0804BC00F003031D562A08009D
:1004C400203083120313A0001930A1001830A200B9
:1004D4001730A3001630A4001530A5001430A60070
:1004E4001330A7001230A8001130A9001030AA0060
:1004F4000930AB000830AC000730AD000630AE0068
:100504000530AF000430B0000330B1000230B20057
:100514000130B300B401073083169F008901090834
:1005240085000508880008088700FF3086008312CC
:10053400881188199F2A0811A02A08150819A42AC5
:100544008810A52A88148818A92A0810AA2A081429
:100554000514851005110910891009158B170B1640
:100564008316811383128618B92AD720BF2A340828
:0E057400013A031DBF2AB4011720B42AC02A81
:02400E004A2F37
:00000001FF
